:101C000012C02CC02BC02AC029C028C027C026C0A3
:101C100025C024C023C022C021C020C01FC01EC0B8
:101C20001DC01CC01BC011241FBECFE5D4E0DEBF09
:101C3000CDBF10E0A0E6B0E0E2EFFFE102C005900A
:101C40000D92A236B107D9F721E0A2E6B0E001C0BB
:101C50001D92AA36B207E1F74AD0C9C1D1CF5D9B28
:101C6000FECF8CB90895CF92DF92EF92FF92C12CF4
:101C7000D12C76015F9913C08FEFC81AD80AE80AF1
:101C8000F80A81E0C81689E0D8068DE3E806F10479
:101C900088F3E0916200F09163000995EBCF8CB17D
:101CA000FF90EF90DF90CF900895CF93DF93D82FE0
:101CB000C0E0CD1719F0D7DFCF5FFBCFDF91CF9119
:101CC0000895CF93C82FCFDF803239F484E1C7DF86
:101CD0008C2FC5DF80E1CF91C2CFCF910895C3DFB4
:101CE000803221F484E1BBDF80E1B9CF08950000A8
:101CF000E0E0F0E0E491EF3F41F004B601FC05C004
:101D0000E0916200F0916300099584B7826084BF1E
:101D100010BC89E189B988E18AB986E880BDBD9A9D
:101D20001092680120E240E050E08091680180312B
:101D3000B8F488B3822788BBCA010197F1F7809174
:101D400068018F5F80936801F0CF813369F0803440
:101D5000F1F0813449F587DF8038F1F482E0B1DFBA
:101D600082DF803391F724C07EDF8032C9F784E1BF
:101D700076DF81E474DF86E572DF82E570DF80E282
:101D80006EDF89E46CDF83E56ADF80E513C16BDF1A
:101D9000863870F068DF0CC0813811F481E0DFCF45
:101DA0008238E9F482E1DBCF823421F484E17DDF03
:101DB00096DFD6CF853411F485E0F9CF90EB980FFC
:101DC0009330B0F3853539F44EDF809364004BDFF8
:101DD00080936500EDCF863521F484E066DF80E0F6
:101DE000BECF843609F090C03EDF809367013BDFB1
:101DF00080936601809169018E7F8093690133DF52
:101E0000853429F48091690181608093690106E637
:101E100010E02091660130916701C801865690401C
:101E20008217930728F41FDFF80181938F01F1CF08
:101E30001ADF803209F094CF8091690180FF1FC0C2
:101E400006E610E02091660130916701C8018656D0
:101E500090408217930708F055C0F80161918F01F7
:101E60008091640090916500B5D08091640090915C
:101E7000650001969093650080936400E3CFF89429
:101E8000E199FECF1127E0916400F0916500EE0F1B
:101E9000FF1FC6E6D0E0809166019091670180FF48
:101EA00001C00196103051F422D003E00093570096
:101EB000E8951DD001E100935700E895099019902D
:101EC00016D001E000935700E8951395103258F0B2
:101ED00011270DD005E000935700E89508D001E1E7
:101EE00000935700E8953296029739F0DBCF0091C6
:101EF000570001700130D9F30895103011F00296A7
:101F0000E7CF112484E156C0843709F046C0ABDE28
:101F100080936701A8DE80936601A5DE9091690138
:101F2000853421F49160909369010DC09E7F909358
:101F300069018091640090916500880F991F9093CA
:101F40006500809364008FDE803209F009CF84E160
:101F500086DE00E010E0809166019091670108172D
:101F6000190748F5209169018091640090916500FE
:101F700020FF02C027D004C021FD03C0FC018491D2
:101F80006EDE8091640090916500019690936500EB
:101F9000809364000F5F1F4FDECF853779F463DED7
:101FA000803209F0DDCE84E15ADE8EE158DE83E92D
:101FB00056DE87E054DE80E152DED2CE863709F06D
:101FC000CFCE0DCFE199FECF9FBB8EBBE09A992774
:101FD0008DB30895262FE199FECF9FBB8EBB2DBBFD
:101FE0000FB6F894E29AE19A0FBE01960895F8941C
:021FF000FFCF21
:021FF20080006D
:0400000300001C00DD
:00000001FF
